{
  "contractName": "Request",
  "abi": [
    {
      "inputs": [
        {
          "internalType": "uint256",
          "name": "_seq",
          "type": "uint256"
        }
      ],
      "name": "getNumberOfRequests",
      "outputs": [
        {
          "internalType": "uint256",
          "name": "",
          "type": "uint256"
        }
      ],
      "stateMutability": "view",
      "type": "function"
    }
  ],
  "bytecode": "0x6080604052348015600f57600080fd5b5060a98061001e6000396000f3fe6080604052348015600f57600080fd5b506004361060285760003560e01c80630a40a66514602d575b600080fd5b605660048036036020811015604157600080fd5b8101908080359060200190929190505050606c565b6040518082815260200191505060405180910390f35b600091905056fea264697066735822122039730b814a8a4452706a68ab59a37e334e3da7c742a09166258ebecb83ce674d64736f6c63430006030033",
  "source": "// SPDX-License-Identifier: MIT\r\npragma solidity >=0.4.22 <0.9.0;\r\n\r\nimport \"./VotersOracle.sol\";\r\n\r\ncontract Request {\r\n    function getNumberOfRequests(uint _seq) public view returns(uint) {}\r\n}\r\n\r\ncontract Custodian is VotersOracle {\r\n\r\n    uint8 public THRESHOLD_OF_PARTICIPANTS = 100;\r\n\r\n    // Nominal voting variables\r\n    mapping(uint => mapping(address => uint)) public values;\r\n    mapping(uint => mapping(address => uint[])) public genes;\r\n    \r\n    mapping (uint256 => uint256) public votesCountOnCamp;           // Total number of votes\r\n    mapping (uint256 => address) public winner;                     // Final winner address\r\n    mapping (uint256 => uint) public winnerValue;                   // Final declared values\r\n    mapping (uint256 => uint[]) public winnerGene;                  // Final gene selected\r\n    mapping (address => mapping (uint256 => bool)) clientHasVotedOnSeq;\r\n    mapping (uint256 => bool) public campHasFinished;\r\n\r\n    // Dispute voting variables\r\n    uint disputeFunds = 10^6;                                       // weis for each voter\r\n\r\n    mapping(uint256 => mapping(address => bool)) public dispVote;   // true: fraud, false: ok\r\n\r\n    mapping (uint256 => uint256) public votesCountOnDisp;           // Total number of votes for dispute             \r\n    mapping (address => mapping (uint256 => bool)) clientHasVotedOnDisp;\r\n    mapping (uint256 => bool) public dispIsOpen;\r\n    mapping (uint256 => bool) public disputeWon;\r\n    mapping (uint256 => address) public disputeRaiser;\r\n\r\n    Request reqCon;\r\n\r\n    // --------------------------------------------------------------\r\n    event VoteCampFinished(uint256 seq, address winner, uint value, uint[] gene);\r\n    event DisputeRaised(uint256 seq, address disputer, uint seed);\r\n    event DisputeEnded(uint seq, bool won);\r\n\r\n    // Warning: This function is only for experiments\r\n    function unsafeSetVoterBase(uint256 _val) public { numOfTotalVoters = _val; }\r\n\r\n    // Warning: This function is only for experiments\r\n    function unsafeTerminateCurrentOpenedSeq() public {\r\n        uint _seq = newly_opened_seq;\r\n        //finalResultOnCamp[_seq] = [0];\r\n\r\n        campHasFinished[_seq] = true;\r\n        last_finalized_seq = _seq;\r\n        newly_opened_seq = _seq + 1;\r\n    }\r\n\r\n    // Warning: This function is only for experiments\r\n    function unsafeSetThreshold(uint8 _thresh) public { THRESHOLD_OF_PARTICIPANTS = _thresh; }\r\n\r\n    // Warning: This function is only for experiments\r\n    function unsafeFirstCycle() public restricted {\r\n        last_finalized_seq = newly_opened_seq;\r\n        newly_opened_seq = newly_opened_seq + 1;\r\n    }\r\n\r\n    function setReqCon(address _reqAdd) public restricted {\r\n        reqCon = Request(_reqAdd);\r\n    }\r\n    \r\n    // ------------------------ VOTING MANAGEMENT --------------------\r\n\r\n    function acceptVote(uint _value, uint[] memory _gene) public onlyVoters {\r\n        \r\n        address client = msg.sender;\r\n                \r\n        // Each client has single vote on a Seq\r\n        if (clientHasVotedOnSeq[client][newly_opened_seq]) revert(\"Each client can only vote once\");\r\n        clientHasVotedOnSeq[client][newly_opened_seq] = true;\r\n        \r\n        // update total counts\r\n        votesCountOnCamp[newly_opened_seq] = votesCountOnCamp[newly_opened_seq] + 1;\r\n        \r\n        // update vote\r\n        values[newly_opened_seq][client] = _value;\r\n        genes[newly_opened_seq][client] = _gene;\r\n        \r\n        // check finalization\r\n        if ((votesCountOnCamp[newly_opened_seq] >= (THRESHOLD_OF_PARTICIPANTS * numOfTotalVoters / 100))) {\r\n            // Compute the final result\r\n            address _winner = computeWinner();\r\n            winner[newly_opened_seq] = _winner;\r\n            winnerValue[newly_opened_seq] = values[newly_opened_seq][_winner];\r\n            winnerGene[newly_opened_seq] = genes[newly_opened_seq][_winner];\r\n\r\n            campHasFinished[newly_opened_seq] = true;\r\n            last_finalized_seq = newly_opened_seq;\r\n            newly_opened_seq = newly_opened_seq + 1;\r\n            \r\n            emit VoteCampFinished(last_finalized_seq, winner[newly_opened_seq], winnerValue[newly_opened_seq], winnerGene[newly_opened_seq]);\r\n        } \r\n    }\r\n\r\n    function computeWinner() private returns(address) {\r\n        uint index = 0;\r\n        while(clientHasVotedOnSeq[voters[index]][newly_opened_seq] != true) index ++; // Find the first client who voted\r\n        \r\n        uint minCost = values[newly_opened_seq][voters[index]];\r\n        address argMinCost = voters[index];\r\n        for(uint i=index+1; i < voters.length; i++) {\r\n            for(uint j=index+1; j < voters.length; j++) {\r\n            \tif(clientHasVotedOnSeq[voters[j]][newly_opened_seq] != true) continue;\r\n                if(values[newly_opened_seq][voters[j]] < minCost) {\r\n                    minCost = values[newly_opened_seq][voters[j]];\r\n                    argMinCost = voters[j];\r\n                }\r\n            }\r\n            if(allRequestsUsed(argMinCost)) {\r\n                return argMinCost;\r\n            }\r\n            values[newly_opened_seq][argMinCost] = 1e50;  // It will not be considered in the next computation\r\n        }\r\n        revert(\"No solution was found to be correct\");\r\n    }\r\n\r\n    function allRequestsUsed(address _voter) private returns(bool) {\r\n        bool found;\r\n        uint req_len = reqCon.getNumberOfRequests(newly_opened_seq);\r\n        for(uint i=0; i<req_len; i++) {\r\n            found = false;\r\n            for(uint j=0; j<genes[newly_opened_seq][_voter].length; j++) {\r\n                if(genes[newly_opened_seq][_voter][j] == i) {\r\n                    if(found == true) {\r\n                        removeFrauder(_voter);\r\n                        return false;     // Same request assigned two times\r\n                    }\r\n                    found = true;\r\n                }\r\n            }\r\n            if(found == false) {\r\n                removeFrauder(_voter);\r\n                return false;            // Request never assigned\r\n            }\r\n        }\r\n        return true;\r\n    }\r\n\r\n    function getLastVoting() public view returns(address, uint, uint[] memory) {\r\n        return (winner[last_finalized_seq], winnerValue[last_finalized_seq], winnerGene[last_finalized_seq]);\r\n    }\r\n\r\n    function getVotingBySeq(uint256 _seq) public view returns(address, uint, uint[] memory) {\r\n        return (winner[_seq], winnerValue[_seq], winnerGene[_seq]);\r\n    }\r\n\r\n    function OpenedSeq() public view returns (uint256) {\r\n        return newly_opened_seq;\r\n    }\r\n\r\n    // ------------------------ DISPUTE MANAGEMENT ----------------------\r\n    function raiseDispute(uint _seq) public payable onlyVoters {\r\n        require(msg.value >= voters.length * disputeFunds, \"Not enough funds were sent to raise a dispute\");\r\n        require(campHasFinished[_seq], \"The selected campaing has not ended yet\");\r\n        dispIsOpen[_seq] = true;\r\n        disputeRaiser[_seq] = msg.sender;\r\n        emit DisputeRaised(_seq, msg.sender, voterSeed[winner[_seq]]);\r\n    }\r\n\r\n    function acceptDisputeVote(uint _seq, bool vote) public onlyVoters {\r\n        \r\n        if (dispIsOpen[_seq] != true) revert(\"This dispute is closed\");\r\n\r\n        address payable client = msg.sender;\r\n        \r\n        // Winner and Disputer are not allowed to vote\r\n        if (client == disputeRaiser[_seq] || client == winner[_seq]) revert(\"Winner and Disputer are not allowed to vote\");\r\n\r\n        // Each client has single vote on a Seq\r\n        if (clientHasVotedOnDisp[client][_seq]) revert(\"Each client can only vote once\");\r\n        clientHasVotedOnDisp[client][_seq] = true;\r\n        client.transfer(disputeFunds);\r\n        \r\n        // update total counts\r\n        votesCountOnCamp[_seq] = votesCountOnCamp[_seq] + 1;\r\n        \r\n        // update vote\r\n        dispVote[_seq][client] = vote;\r\n\r\n        // check finalization\r\n        if ((votesCountOnDisp[_seq] >= (THRESHOLD_OF_PARTICIPANTS * numOfTotalVoters / 100))) {\r\n            // Compute the final result\r\n            disputeWon[_seq] = dispWasWon(_seq);\r\n            dispIsOpen[_seq] = false;\r\n            \r\n            if (disputeWon[_seq]) {\r\n                punishFrauder(winner[_seq], disputeRaiser[_seq]);\r\n            }\r\n            emit DisputeEnded(_seq, disputeWon[_seq]);\r\n        } \r\n    }\r\n\r\n    function dispWasWon(uint _seq) private view returns(bool) {\r\n        uint8 trues = 0;\r\n\r\n        for(uint i=0; i < voters.length; i++) {\r\n            if (clientHasVotedOnDisp[voters[i]][_seq] != true) continue;\r\n            if (dispVote[_seq][voters[i]]) trues++;\r\n            else trues--;\r\n        }\r\n\r\n        if (trues > 0) return true;     // true: fraud, 51% of voters to invalidate\r\n        else return false;              // false: ok\r\n    }\r\n}\r\n",
  "sourcePath": "/home/bernardo/Research Project/PlanningCustodian_3/contracts/Custodian.sol",
  "compiler": {
    "name": "solc",
    "version": "0.6.3+commit.8dda9521.Emscripten.clang"
  },
  "schemaVersion": "3.3.3",
  "updatedAt": "2021-02-23T18:09:34.780Z",
  "devdoc": {
    "methods": {}
  },
  "userdoc": {
    "methods": {}
  }
}