{
  "contractName": "RequestOracle",
  "abi": [
    {
      "inputs": [
        {
          "internalType": "address",
          "name": "_conAdd",
          "type": "address"
        }
      ],
      "stateMutability": "nonpayable",
      "type": "constructor"
    },
    {
      "inputs": [],
      "name": "feeDistanceRatio",
      "outputs": [
        {
          "internalType": "uint256",
          "name": "",
          "type": "uint256"
        }
      ],
      "stateMutability": "view",
      "type": "function",
      "constant": true
    },
    {
      "inputs": [],
      "name": "owner",
      "outputs": [
        {
          "internalType": "address",
          "name": "",
          "type": "address"
        }
      ],
      "stateMutability": "view",
      "type": "function",
      "constant": true
    },
    {
      "inputs": [],
      "name": "sequence",
      "outputs": [
        {
          "internalType": "uint256",
          "name": "",
          "type": "uint256"
        }
      ],
      "stateMutability": "view",
      "type": "function",
      "constant": true
    },
    {
      "inputs": [],
      "name": "source",
      "outputs": [
        {
          "internalType": "address",
          "name": "",
          "type": "address"
        }
      ],
      "stateMutability": "view",
      "type": "function",
      "constant": true
    },
    {
      "inputs": [],
      "name": "vehicle",
      "outputs": [
        {
          "internalType": "address payable",
          "name": "",
          "type": "address"
        }
      ],
      "stateMutability": "view",
      "type": "function",
      "constant": true
    },
    {
      "inputs": [
        {
          "internalType": "uint256",
          "name": "x",
          "type": "uint256"
        }
      ],
      "name": "sqrt",
      "outputs": [
        {
          "internalType": "uint256",
          "name": "y",
          "type": "uint256"
        }
      ],
      "stateMutability": "pure",
      "type": "function",
      "constant": true
    },
    {
      "inputs": [
        {
          "internalType": "address",
          "name": "_newSource",
          "type": "address"
        }
      ],
      "name": "setNewSource",
      "outputs": [],
      "stateMutability": "nonpayable",
      "type": "function"
    },
    {
      "inputs": [
        {
          "internalType": "address",
          "name": "_conAdd",
          "type": "address"
        }
      ],
      "name": "setContractAddress",
      "outputs": [],
      "stateMutability": "nonpayable",
      "type": "function"
    },
    {
      "inputs": [
        {
          "internalType": "address payable",
          "name": "_vehAdd",
          "type": "address"
        }
      ],
      "name": "setVehicleAddress",
      "outputs": [],
      "stateMutability": "nonpayable",
      "type": "function"
    },
    {
      "inputs": [
        {
          "internalType": "int256",
          "name": "_sourceX",
          "type": "int256"
        },
        {
          "internalType": "int256",
          "name": "_sourceY",
          "type": "int256"
        },
        {
          "internalType": "int256",
          "name": "_destinationX",
          "type": "int256"
        },
        {
          "internalType": "int256",
          "name": "_destinationY",
          "type": "int256"
        },
        {
          "internalType": "uint256",
          "name": "_weight",
          "type": "uint256"
        },
        {
          "internalType": "uint256",
          "name": "_volumeX",
          "type": "uint256"
        },
        {
          "internalType": "uint256",
          "name": "_volumeY",
          "type": "uint256"
        },
        {
          "internalType": "uint256",
          "name": "_volumeZ",
          "type": "uint256"
        }
      ],
      "name": "newRequest",
      "outputs": [],
      "stateMutability": "payable",
      "type": "function",
      "payable": true
    },
    {
      "inputs": [
        {
          "internalType": "uint256",
          "name": "_seq",
          "type": "uint256"
        }
      ],
      "name": "getRequests_1",
      "outputs": [
        {
          "internalType": "int256[]",
          "name": "_sourceX",
          "type": "int256[]"
        },
        {
          "internalType": "int256[]",
          "name": "_sourceY",
          "type": "int256[]"
        },
        {
          "internalType": "int256[]",
          "name": "_destinationX",
          "type": "int256[]"
        },
        {
          "internalType": "int256[]",
          "name": "_destinationY",
          "type": "int256[]"
        }
      ],
      "stateMutability": "view",
      "type": "function",
      "constant": true
    },
    {
      "inputs": [
        {
          "internalType": "uint256",
          "name": "_seq",
          "type": "uint256"
        }
      ],
      "name": "getRequests_2",
      "outputs": [
        {
          "internalType": "uint256[]",
          "name": "_weight",
          "type": "uint256[]"
        },
        {
          "internalType": "uint256[]",
          "name": "_volumeX",
          "type": "uint256[]"
        },
        {
          "internalType": "uint256[]",
          "name": "_volumeY",
          "type": "uint256[]"
        },
        {
          "internalType": "uint256[]",
          "name": "_volumeZ",
          "type": "uint256[]"
        }
      ],
      "stateMutability": "view",
      "type": "function",
      "constant": true
    },
    {
      "inputs": [
        {
          "internalType": "uint256",
          "name": "_seq",
          "type": "uint256"
        }
      ],
      "name": "getNumberOfRequests",
      "outputs": [
        {
          "internalType": "uint256",
          "name": "",
          "type": "uint256"
        }
      ],
      "stateMutability": "view",
      "type": "function",
      "constant": true
    },
    {
      "inputs": [],
      "name": "getFeeDistanceRatio",
      "outputs": [
        {
          "internalType": "uint256",
          "name": "",
          "type": "uint256"
        }
      ],
      "stateMutability": "view",
      "type": "function",
      "constant": true
    }
  ],
  "bytecode": "0x6080604052600560005533600460006101000a81548173ffffffffffffffffffffffffffffffffffffffff021916908373ffffffffffffffffffffffffffffffffffffffff16021790555034801561005657600080fd5b506040516114433803806114438339818101604052602081101561007957600080fd5b810190808051906020019092919050505080600660006101000a81548173ffffffffffffffffffffffffffffffffffffffff021916908373ffffffffffffffffffffffffffffffffffffffff16021790555050611368806100db6000396000f3fe6080604052600436106100dd5760003560e01c806367e828bf1161007f578063be582e5d11610059578063be582e5d146104e5578063c979a9bd14610510578063f186520214610678578063ff096920146106c9576100dd565b806367e828bf146102cf5780636b5eda43146103265780638da5cb5b1461048e576100dd565b8063477bddaa116100bb578063477bddaa146101b3578063529d15cc146102045780636517372b1461022f578063677342ce14610280576100dd565b80630a40a665146100e2578063132a339b146101315780631406334414610188575b600080fd5b3480156100ee57600080fd5b5061011b6004803603602081101561010557600080fd5b810190808035906020019092919050505061073e565b6040518082815260200191505060405180910390f35b34801561013d57600080fd5b5061014661075e565b604051808273ffffffffffffffffffffffffffffffffffffffff1673ffffffffffffffffffffffffffffffffffffffff16815260200191505060405180910390f35b34801561019457600080fd5b5061019d610784565b6040518082815260200191505060405180910390f35b3480156101bf57600080fd5b50610202600480360360208110156101d657600080fd5b81019080803573ffffffffffffffffffffffffffffffffffffffff16906020019092919050505061078d565b005b34801561021057600080fd5b50610219610877565b6040518082815260200191505060405180910390f35b34801561023b57600080fd5b5061027e6004803603602081101561025257600080fd5b81019080803573ffffffffffffffffffffffffffffffffffffffff16906020019092919050505061087d565b005b34801561028c57600080fd5b506102b9600480360360208110156102a357600080fd5b81019080803590602001909291905050506108c1565b6040518082815260200191505060405180910390f35b3480156102db57600080fd5b506102e4610906565b604051808273ffffffffffffffffffffffffffffffffffffffff1673ffffffffffffffffffffffffffffffffffffffff16815260200191505060405180910390f35b34801561033257600080fd5b5061035f6004803603602081101561034957600080fd5b810190808035906020019092919050505061092c565b6040518080602001806020018060200180602001858103855289818151815260200191508051906020019060200280838360005b838110156103ae578082015181840152602081019050610393565b50505050905001858103845288818151815260200191508051906020019060200280838360005b838110156103f05780820151818401526020810190506103d5565b50505050905001858103835287818151815260200191508051906020019060200280838360005b83811015610432578082015181840152602081019050610417565b50505050905001858103825286818151815260200191508051906020019060200280838360005b83811015610474578082015181840152602081019050610459565b505050509050019850505050505050505060405180910390f35b34801561049a57600080fd5b506104a3610b65565b604051808273ffffffffffffffffffffffffffffffffffffffff1673ffffffffffffffffffffffffffffffffffffffff16815260200191505060405180910390f35b3480156104f157600080fd5b506104fa610b8b565b6040518082815260200191505060405180910390f35b34801561051c57600080fd5b506105496004803603602081101561053357600080fd5b8101908080359060200190929190505050610b91565b6040518080602001806020018060200180602001858103855289818151815260200191508051906020019060200280838360005b8381101561059857808201518184015260208101905061057d565b50505050905001858103845288818151815260200191508051906020019060200280838360005b838110156105da5780820151818401526020810190506105bf565b50505050905001858103835287818151815260200191508051906020019060200280838360005b8381101561061c578082015181840152602081019050610601565b50505050905001858103825286818151815260200191508051906020019060200280838360005b8381101561065e578082015181840152602081019050610643565b505050509050019850505050505050505060405180910390f35b34801561068457600080fd5b506106c76004803603602081101561069b57600080fd5b81019080803573ffffffffffffffffffffffffffffffffffffffff169060200190929190505050610dc7565b005b61073c60048036036101008110156106e057600080fd5b810190808035906020019092919080359060200190929190803590602001909291908035906020019092919080359060200190929190803590602001909291908035906020019092919080359060200190929190505050610eb1565b005b600060026000838152602001908152602001600020805490509050919050565b600560009054906101000a900473ffffffffffffffffffffffffffffffffffffffff1681565b60008054905090565b600460009054906101000a900473ffffffffffffffffffffffffffffffffffffffff1673ffffffffffffffffffffffffffffffffffffffff163373ffffffffffffffffffffffffffffffffffffffff1614610833576040517f08c379a00000000000000000000000000000000000000000000000000000000081526004018080602001828103825260338152602001806113006033913960400191505060405180910390fd5b80600660006101000a81548173ffffffffffffffffffffffffffffffffffffffff021916908373ffffffffffffffffffffffffffffffffffffffff16021790555050565b60015481565b80600560006101000a81548173ffffffffffffffffffffffffffffffffffffffff021916908373ffffffffffffffffffffffffffffffffffffffff16021790555050565b600080600260018401816108d157fe5b0490508291505b81811015610900578091506002818285816108ef57fe5b0401816108f857fe5b0490506108d8565b50919050565b600360009054906101000a900473ffffffffffffffffffffffffffffffffffffffff1681565b6060806060806000600260008781526020019081526020016000208054905090508060405190808252806020026020018201604052801561097c5781602001602082028036833780820191505090505b509450806040519080825280602002602001820160405280156109ae5781602001602082028036833780820191505090505b509350806040519080825280602002602001820160405280156109e05781602001602082028036833780820191505090505b50925080604051908082528060200260200182016040528015610a125781602001602082028036833780820191505090505b50915060008090505b81811015610b5c57600260008881526020019081526020016000208181548110610a4157fe5b906000526020600020906008020160000160000154868281518110610a6257fe5b602002602001018181525050600260008881526020019081526020016000208181548110610a8c57fe5b906000526020600020906008020160000160010154858281518110610aad57fe5b602002602001018181525050600260008881526020019081526020016000208181548110610ad757fe5b906000526020600020906008020160020160000154848281518110610af857fe5b602002602001018181525050600260008881526020019081526020016000208181548110610b2257fe5b906000526020600020906008020160020160010154838281518110610b4357fe5b6020026020010181815250508080600101915050610a1b565b50509193509193565b600460009054906101000a900473ffffffffffffffffffffffffffffffffffffffff1681565b60005481565b60608060608060006002600087815260200190815260200160002080549050905080604051908082528060200260200182016040528015610be15781602001602082028036833780820191505090505b50945080604051908082528060200260200182016040528015610c135781602001602082028036833780820191505090505b50935080604051908082528060200260200182016040528015610c455781602001602082028036833780820191505090505b50925080604051908082528060200260200182016040528015610c775781602001602082028036833780820191505090505b50915060008090505b81811015610dbe57600260008881526020019081526020016000208181548110610ca657fe5b906000526020600020906008020160040154868281518110610cc457fe5b602002602001018181525050600260008881526020019081526020016000208181548110610cee57fe5b906000526020600020906008020160050160000154858281518110610d0f57fe5b602002602001018181525050600260008881526020019081526020016000208181548110610d3957fe5b906000526020600020906008020160050160010154848281518110610d5a57fe5b602002602001018181525050600260008881526020019081526020016000208181548110610d8457fe5b906000526020600020906008020160050160020154838281518110610da557fe5b6020026020010181815250508080600101915050610c80565b50509193509193565b600460009054906101000a900473ffffffffffffffffffffffffffffffffffffffff1673ffffffffffffffffffffffffffffffffffffffff163373ffffffffffffffffffffffffffffffffffffffff1614610e6d576040517f08c379a00000000000000000000000000000000000000000000000000000000081526004018080602001828103825260338152602001806113006033913960400191505060405180910390fd5b80600360006101000a81548173ffffffffffffffffffffffffffffffffffffffff021916908373ffffffffffffffffffffffffffffffffffffffff16021790555050565b600360009054906101000a900473ffffffffffffffffffffffffffffffffffffffff1673ffffffffffffffffffffffffffffffffffffffff163373ffffffffffffffffffffffffffffffffffffffff1614610f57576040517f08c379a00000000000000000000000000000000000000000000000000000000081526004018080602001828103825260348152602001806112cc6034913960400191505060405180910390fd5b610f5f6111f3565b6000610f766002878a030a6002898c030a016108c1565b90506000548102341015610fd5576040517f08c379a000000000000000000000000000000000000000000000000000000000815260040180806020018281038252602a8152602001806112a2602a913960400191505060405180910390fd5b600260006001548152602001908152602001600020604051806080016040528060405180604001604052808d81526020018c815250815260200160405180604001604052808b81526020018a81525081526020018781526020016040518060600160405280888152602001878152602001868152508152509080600181540180825580915050600190039060005260206000209060080201600090919091909150600082015181600001600082015181600001556020820151816001015550506020820151816002016000820151816000015560208201518160010155505060408201518160040155606082015181600501600082015181600001556020820151816001015560408201518160020155505050506000600560009054906101000a900473ffffffffffffffffffffffffffffffffffffffff1673ffffffffffffffffffffffffffffffffffffffff163460405180600001905060006040518083038185875af1925050503d806000811461116b576040519150601f19603f3d011682016040523d82523d6000602084013e611170565b606091505b50509050806111e7576040517f08c379a00000000000000000000000000000000000000000000000000000000081526004018080602001828103825260108152602001807f5472616e73666572206661696c65642e0000000000000000000000000000000081525060200191505060405180910390fd5b50505050505050505050565b6001600660009054906101000a900473ffffffffffffffffffffffffffffffffffffffff1673ffffffffffffffffffffffffffffffffffffffff1663689941066040518163ffffffff1660e01b815260040160206040518083038186803b15801561125d57600080fd5b505afa158015611271573d6000803e3d6000fd5b505050506040513d602081101561128757600080fd5b81019080805190602001909291905050500160018190555056fe4e6f7420656e6f756768206d6f6e6579207761732073656e7420666f7220746869732072657175657374546869732066756e6374696f6e206973207265737472696374656420746f2074686520636f6e7472616374277320736f75726365546869732066756e6374696f6e206973207265737472696374656420746f2074686520636f6e74726163742773206f776e6572a26469706673582212203b0d1aa9e13f8f5d8785fd2f0f13dae9738fbf8161354d89b653c46cb9d3ea4164736f6c63430006030033",
  "source": "// SPDX-License-Identifier: MIT\r\npragma solidity >=0.4.22 <0.9.0;\r\n\r\nimport * as P from \"./PlanningLib.sol\";\r\n\r\ncontract CustodianInt {\r\n    function OpenedSeq() public view returns (uint256) {}\r\n}\r\n\r\ncontract RequestOracle {\r\n\r\n    uint public feeDistanceRatio = 5;                      // To be tuned according to the distance scale (m, dm, cm...)\r\n    uint256 public sequence;\r\n\r\n    mapping(uint => P.Planning.Request[]) requests;\r\n\r\n    address public source;\r\n    address public owner = msg.sender;\r\n    address payable public vehicle;\r\n\r\n    CustodianInt custOr;\r\n\r\n    constructor (address _conAdd) public {\r\n        custOr = CustodianInt(_conAdd);\r\n    }\r\n\r\n    modifier onlySource() {\r\n        require(msg.sender == source,\r\n        \"This function is restricted to the contract's source\");\r\n        _;\r\n    }\r\n\r\n    modifier restricted() {\r\n        require(msg.sender == owner,\r\n        \"This function is restricted to the contract's owner\");\r\n        _;\r\n    }\r\n\r\n    function sqrt(uint x) public pure returns (uint y) {\r\n        uint z = (x + 1) / 2;\r\n        y = x;\r\n        while (z < y) {\r\n            y = z;\r\n            z = (x / z + z) / 2;\r\n        }\r\n    }\r\n\r\n    function update() private {\r\n        sequence = custOr.OpenedSeq() + 1;\r\n    }\r\n\r\n    function setNewSource(address _newSource) public restricted {\r\n        source = _newSource;\r\n    }\r\n\r\n    function setContractAddress(address _conAdd) public restricted {\r\n        custOr = CustodianInt(_conAdd);\r\n    }\r\n\r\n    function setVehicleAddress(address payable _vehAdd) public {\r\n        vehicle = _vehAdd;\r\n    }\r\n\r\n    function newRequest(int _sourceX, int _sourceY, int _destinationX, int _destinationY,\r\n                        uint _weight, uint _volumeX, uint _volumeY, uint _volumeZ) public payable onlySource {\r\n\r\n        update();\r\n\r\n\t    uint distance = sqrt((uint(_sourceX - _destinationX))**2 +\r\n                             (uint(_sourceY - _destinationY))**2);\r\n        require(msg.value >= distance * feeDistanceRatio, \"Not enough money was sent for this request\");\r\n\t\r\n        requests[sequence].push(P.Planning.Request(P.Planning.Position(_sourceX, _sourceY),\r\n                                                     P.Planning.Position(_destinationX, _destinationY),\r\n                                                     _weight,\r\n                                                     P.Planning.Volume(_volumeX, _volumeY, _volumeZ)));\r\n\r\n        //vehicle.transfer(msg.value);\r\n        (bool success, ) = vehicle.call.value(msg.value)(\"\");\r\n        require(success, \"Transfer failed.\");\r\n    }\r\n\r\n    function getRequests_1(uint _seq) public view returns(int[] memory _sourceX, int[] memory _sourceY,\r\n                                    \t\t            int[] memory _destinationX, int[] memory _destinationY) {\r\n\r\n        uint _len = requests[_seq].length;\r\n        _sourceX      = new  int[](_len);\r\n        _sourceY      = new  int[](_len);\r\n        _destinationX = new  int[](_len);\r\n        _destinationY = new  int[](_len);\r\n\r\n        for(uint i=0; i < _len; i++) {\r\n            _sourceX[i]      = requests[_seq][i].source.x;\r\n            _sourceY[i]      = requests[_seq][i].source.y;\r\n            _destinationX[i] = requests[_seq][i].destination.x;\r\n            _destinationY[i] = requests[_seq][i].destination.y;\r\n        }\r\n    }\r\n\r\n    function getRequests_2(uint _seq) public view returns(uint[] memory _weight,\r\n                                                          uint[] memory _volumeX,\r\n                                                          uint[] memory _volumeY,\r\n                                                          uint[] memory _volumeZ) {\r\n\r\n        uint _len = requests[_seq].length;\r\n        _weight       = new uint[](_len);\r\n        _volumeX      = new uint[](_len);\r\n        _volumeY      = new uint[](_len);\r\n        _volumeZ      = new uint[](_len);\r\n        for(uint i=0; i < _len; i++) {\r\n            _weight[i]  = requests[_seq][i].weight;\r\n            _volumeX[i] = requests[_seq][i].volume.len;\r\n            _volumeY[i] = requests[_seq][i].volume.height;\r\n            _volumeZ[i] = requests[_seq][i].volume.depth;\r\n        }\r\n    }\r\n\r\n    function getNumberOfRequests(uint _seq) public view returns(uint) {\r\n        return requests[_seq].length;\r\n    }\r\n\r\n    function getFeeDistanceRatio() public view returns(uint) {\r\n        return feeDistanceRatio;\r\n    }\r\n\r\n}\r\n",
  "sourcePath": "/home/bernardo/Research Project/PlanningCustodian_3/contracts/RequestOracle.sol",
  "compiler": {
    "name": "solc",
    "version": "0.6.3+commit.8dda9521.Emscripten.clang"
  },
  "schemaVersion": "3.3.3",
  "updatedAt": "2021-03-10T18:54:43.994Z",
  "networkType": "ethereum",
  "devdoc": {
    "methods": {}
  },
  "userdoc": {
    "methods": {}
  }
}