{
  "contractName": "VehicleOracle",
  "abi": [
    {
      "inputs": [
        {
          "internalType": "address payable",
          "name": "_conAdd",
          "type": "address"
        }
      ],
      "stateMutability": "nonpayable",
      "type": "constructor"
    },
    {
      "stateMutability": "payable",
      "type": "fallback",
      "payable": true
    },
    {
      "inputs": [],
      "name": "custodian",
      "outputs": [
        {
          "internalType": "address payable",
          "name": "",
          "type": "address"
        }
      ],
      "stateMutability": "view",
      "type": "function",
      "constant": true
    },
    {
      "inputs": [],
      "name": "feeDistanceRatio",
      "outputs": [
        {
          "internalType": "uint256",
          "name": "",
          "type": "uint256"
        }
      ],
      "stateMutability": "view",
      "type": "function",
      "constant": true
    },
    {
      "inputs": [],
      "name": "owner",
      "outputs": [
        {
          "internalType": "address",
          "name": "",
          "type": "address"
        }
      ],
      "stateMutability": "view",
      "type": "function",
      "constant": true
    },
    {
      "inputs": [],
      "name": "sequence",
      "outputs": [
        {
          "internalType": "uint256",
          "name": "",
          "type": "uint256"
        }
      ],
      "stateMutability": "view",
      "type": "function",
      "constant": true
    },
    {
      "inputs": [
        {
          "internalType": "address",
          "name": "",
          "type": "address"
        }
      ],
      "name": "vehiclesKnown",
      "outputs": [
        {
          "internalType": "bool",
          "name": "",
          "type": "bool"
        }
      ],
      "stateMutability": "view",
      "type": "function",
      "constant": true
    },
    {
      "stateMutability": "payable",
      "type": "receive",
      "payable": true
    },
    {
      "inputs": [],
      "name": "update",
      "outputs": [],
      "stateMutability": "nonpayable",
      "type": "function"
    },
    {
      "inputs": [
        {
          "internalType": "uint256",
          "name": "x",
          "type": "uint256"
        }
      ],
      "name": "sqrt",
      "outputs": [
        {
          "internalType": "uint256",
          "name": "y",
          "type": "uint256"
        }
      ],
      "stateMutability": "pure",
      "type": "function",
      "constant": true
    },
    {
      "inputs": [
        {
          "internalType": "address",
          "name": "_conAdd",
          "type": "address"
        }
      ],
      "name": "setContractAddress",
      "outputs": [],
      "stateMutability": "nonpayable",
      "type": "function"
    },
    {
      "inputs": [
        {
          "internalType": "address",
          "name": "_vehicle",
          "type": "address"
        }
      ],
      "name": "addKnownVehicle",
      "outputs": [],
      "stateMutability": "nonpayable",
      "type": "function"
    },
    {
      "inputs": [
        {
          "internalType": "address",
          "name": "_vehicle",
          "type": "address"
        }
      ],
      "name": "removeKnownVehicle",
      "outputs": [],
      "stateMutability": "nonpayable",
      "type": "function"
    },
    {
      "inputs": [
        {
          "internalType": "int256",
          "name": "_positionX",
          "type": "int256"
        },
        {
          "internalType": "int256",
          "name": "_positionY",
          "type": "int256"
        },
        {
          "internalType": "uint256",
          "name": "_maxPayload",
          "type": "uint256"
        },
        {
          "internalType": "uint256",
          "name": "_maxVolumeX",
          "type": "uint256"
        },
        {
          "internalType": "uint256",
          "name": "_maxVolumeY",
          "type": "uint256"
        },
        {
          "internalType": "uint256",
          "name": "_maxVolumeZ",
          "type": "uint256"
        },
        {
          "internalType": "uint256",
          "name": "_distanceLeft",
          "type": "uint256"
        },
        {
          "internalType": "uint256",
          "name": "_speed",
          "type": "uint256"
        },
        {
          "internalType": "uint256",
          "name": "_setUpTime",
          "type": "uint256"
        },
        {
          "internalType": "uint256",
          "name": "_dropOffTime",
          "type": "uint256"
        },
        {
          "internalType": "uint256",
          "name": "_timeForTask",
          "type": "uint256"
        }
      ],
      "name": "setVehicleProperties",
      "outputs": [],
      "stateMutability": "nonpayable",
      "type": "function"
    },
    {
      "inputs": [
        {
          "internalType": "int256",
          "name": "_positionX",
          "type": "int256"
        },
        {
          "internalType": "int256",
          "name": "_positionY",
          "type": "int256"
        },
        {
          "internalType": "uint256",
          "name": "_distanceLeft",
          "type": "uint256"
        },
        {
          "internalType": "uint256",
          "name": "_timeForTask",
          "type": "uint256"
        }
      ],
      "name": "updateVehicleProperties",
      "outputs": [],
      "stateMutability": "nonpayable",
      "type": "function"
    },
    {
      "inputs": [
        {
          "internalType": "uint256",
          "name": "_seq",
          "type": "uint256"
        }
      ],
      "name": "getVehicles_1",
      "outputs": [
        {
          "internalType": "int256[]",
          "name": "_positionX",
          "type": "int256[]"
        },
        {
          "internalType": "int256[]",
          "name": "_positionY",
          "type": "int256[]"
        },
        {
          "internalType": "uint256[]",
          "name": "_maxPayload",
          "type": "uint256[]"
        },
        {
          "internalType": "uint256[]",
          "name": "_volumeX",
          "type": "uint256[]"
        },
        {
          "internalType": "uint256[]",
          "name": "_volumeY",
          "type": "uint256[]"
        },
        {
          "internalType": "uint256[]",
          "name": "_volumeZ",
          "type": "uint256[]"
        }
      ],
      "stateMutability": "view",
      "type": "function",
      "constant": true
    },
    {
      "inputs": [
        {
          "internalType": "uint256",
          "name": "_seq",
          "type": "uint256"
        }
      ],
      "name": "getVehicles_2",
      "outputs": [
        {
          "internalType": "uint256[]",
          "name": "_distanceLeft",
          "type": "uint256[]"
        },
        {
          "internalType": "uint256[]",
          "name": "_speed",
          "type": "uint256[]"
        },
        {
          "internalType": "uint256[]",
          "name": "_setUpTime",
          "type": "uint256[]"
        },
        {
          "internalType": "uint256[]",
          "name": "_dropOffTime",
          "type": "uint256[]"
        },
        {
          "internalType": "uint256[]",
          "name": "_timeForTask",
          "type": "uint256[]"
        }
      ],
      "stateMutability": "view",
      "type": "function",
      "constant": true
    },
    {
      "inputs": [
        {
          "internalType": "uint256",
          "name": "_seq",
          "type": "uint256"
        }
      ],
      "name": "getVehiclesAddresses",
      "outputs": [
        {
          "internalType": "address[]",
          "name": "",
          "type": "address[]"
        }
      ],
      "stateMutability": "view",
      "type": "function",
      "constant": true
    },
    {
      "inputs": [
        {
          "internalType": "uint256",
          "name": "_seq",
          "type": "uint256"
        }
      ],
      "name": "getVehiclesNumber",
      "outputs": [
        {
          "internalType": "uint256",
          "name": "",
          "type": "uint256"
        }
      ],
      "stateMutability": "view",
      "type": "function",
      "constant": true
    },
    {
      "inputs": [
        {
          "internalType": "uint256",
          "name": "_funds",
          "type": "uint256"
        }
      ],
      "name": "returnFunds",
      "outputs": [],
      "stateMutability": "nonpayable",
      "type": "function"
    }
  ],
  "bytecode": "0x608060405260056000556001805533600260006101000a81548173ffffffffffffffffffffffffffffffffffffffff021916908373ffffffffffffffffffffffffffffffffffffffff16021790555034801561005a57600080fd5b5060405161278a38038061278a8339818101604052602081101561007d57600080fd5b810190808051906020019092919050505080600360006101000a81548173ffffffffffffffffffffffffffffffffffffffff021916908373ffffffffffffffffffffffffffffffffffffffff16021790555080600760006101000a81548173ffffffffffffffffffffffffffffffffffffffff021916908373ffffffffffffffffffffffffffffffffffffffff1602179055505061266a806101206000396000f3fe6080604052600436106101025760003560e01c80638da5cb5b11610095578063be582e5d11610064578063be582e5d146107c8578063c99fc7ff146107f3578063e070541e14610842578063e880bc13146108e2578063f3a579431461093357610109565b80638da5cb5b146103b2578063a2e6204514610409578063bc57471514610420578063be224927146105d057610109565b8063529d15cc116100d1578063529d15cc1461023f578063677342ce1461026a578063698cecdd146102b95780636e96d5211461034957610109565b8063375b74c31461010b57806345755dd614610162578063468b6fbf1461019d578063477bddaa146101ee57610109565b3661010957005b005b34801561011757600080fd5b5061012061098c565b604051808273ffffffffffffffffffffffffffffffffffffffff1673ffffffffffffffffffffffffffffffffffffffff16815260200191505060405180910390f35b34801561016e57600080fd5b5061019b6004803603602081101561018557600080fd5b81019080803590602001909291905050506109b2565b005b3480156101a957600080fd5b506101ec600480360360208110156101c057600080fd5b81019080803573ffffffffffffffffffffffffffffffffffffffff169060200190929190505050610b5a565b005b3480156101fa57600080fd5b5061023d6004803603602081101561021157600080fd5b81019080803573ffffffffffffffffffffffffffffffffffffffff169060200190929190505050610ea2565b005b34801561024b57600080fd5b50610254610f8c565b6040518082815260200191505060405180910390f35b34801561027657600080fd5b506102a36004803603602081101561028d57600080fd5b8101908080359060200190929190505050610f92565b6040518082815260200191505060405180910390f35b3480156102c557600080fd5b506102f2600480360360208110156102dc57600080fd5b8101908080359060200190929190505050610fd7565b6040518080602001828103825283818151815260200191508051906020019060200280838360005b8381101561033557808201518184015260208101905061031a565b505050509050019250505060405180910390f35b34801561035557600080fd5b506103986004803603602081101561036c57600080fd5b81019080803573ffffffffffffffffffffffffffffffffffffffff169060200190929190505050611078565b604051808215151515815260200191505060405180910390f35b3480156103be57600080fd5b506103c7611098565b604051808273ffffffffffffffffffffffffffffffffffffffff1673ffffffffffffffffffffffffffffffffffffffff16815260200191505060405180910390f35b34801561041557600080fd5b5061041e6110be565b005b34801561042c57600080fd5b506104596004803603602081101561044357600080fd5b81019080803590602001909291905050506113a8565b60405180806020018060200180602001806020018060200186810386528b818151815260200191508051906020019060200280838360005b838110156104ac578082015181840152602081019050610491565b5050505090500186810385528a818151815260200191508051906020019060200280838360005b838110156104ee5780820151818401526020810190506104d3565b50505050905001868103845289818151815260200191508051906020019060200280838360005b83811015610530578082015181840152602081019050610515565b50505050905001868103835288818151815260200191508051906020019060200280838360005b83811015610572578082015181840152602081019050610557565b50505050905001868103825287818151815260200191508051906020019060200280838360005b838110156105b4578082015181840152602081019050610599565b505050509050019a505050505050505050505060405180910390f35b3480156105dc57600080fd5b50610609600480360360208110156105f357600080fd5b8101908080359060200190929190505050611803565b6040518080602001806020018060200180602001806020018060200187810387528d818151815260200191508051906020019060200280838360005b83811015610660578082015181840152602081019050610645565b5050505090500187810386528c818151815260200191508051906020019060200280838360005b838110156106a2578082015181840152602081019050610687565b5050505090500187810385528b818151815260200191508051906020019060200280838360005b838110156106e45780820151818401526020810190506106c9565b5050505090500187810384528a818151815260200191508051906020019060200280838360005b8381101561072657808201518184015260208101905061070b565b50505050905001878103835289818151815260200191508051906020019060200280838360005b8381101561076857808201518184015260208101905061074d565b50505050905001878103825288818151815260200191508051906020019060200280838360005b838110156107aa57808201518184015260208101905061078f565b505050509050019c5050505050505050505050505060405180910390f35b3480156107d457600080fd5b506107dd611d1f565b6040518082815260200191505060405180910390f35b3480156107ff57600080fd5b5061082c6004803603602081101561081657600080fd5b8101908080359060200190929190505050611d25565b6040518082815260200191505060405180910390f35b34801561084e57600080fd5b506108e0600480360361016081101561086657600080fd5b810190808035906020019092919080359060200190929190803590602001909291908035906020019092919080359060200190929190803590602001909291908035906020019092919080359060200190929190803590602001909291908035906020019092919080359060200190929190505050611d45565b005b3480156108ee57600080fd5b506109316004803603602081101561090557600080fd5b81019080803573ffffffffffffffffffffffffffffffffffffffff169060200190929190505050611f59565b005b34801561093f57600080fd5b5061098a6004803603608081101561095657600080fd5b8101908080359060200190929190803590602001909291908035906020019092919080359060200190929190505050612129565b005b600360009054906101000a900473ffffffffffffffffffffffffffffffffffffffff1681565b600360009054906101000a900473ffffffffffffffffffffffffffffffffffffffff1673ffffffffffffffffffffffffffffffffffffffff163373ffffffffffffffffffffffffffffffffffffffff1614610a58576040517f08c379a00000000000000000000000000000000000000000000000000000000081526004018080602001828103825260348152602001806125a46034913960400191505060405180910390fd5b6000600360009054906101000a900473ffffffffffffffffffffffffffffffffffffffff1673ffffffffffffffffffffffffffffffffffffffff168260405180600001905060006040518083038185875af1925050503d8060008114610ada576040519150601f19603f3d011682016040523d82523d6000602084013e610adf565b606091505b5050905080610b56576040517f08c379a00000000000000000000000000000000000000000000000000000000081526004018080602001828103825260108152602001807f5472616e73666572206661696c65642e0000000000000000000000000000000081525060200191505060405180910390fd5b5050565b600260009054906101000a900473ffffffffffffffffffffffffffffffffffffffff1673ffffffffffffffffffffffffffffffffffffffff163373ffffffffffffffffffffffffffffffffffffffff1614610c00576040517f08c379a00000000000000000000000000000000000000000000000000000000081526004018080602001828103825260338152602001806126026033913960400191505060405180910390fd5b60011515600460008373ffffffffffffffffffffffffffffffffffffffff1673ffffffffffffffffffffffffffffffffffffffff16815260200190815260200160002060009054906101000a900460ff1615151415610e9f576000600460008373ffffffffffffffffffffffffffffffffffffffff1673ffffffffffffffffffffffffffffffffffffffff16815260200190815260200160002060006101000a81548160ff02191690831515021790555060008090505b60056000600154815260200190815260200160002080549050811015610e9d578173ffffffffffffffffffffffffffffffffffffffff166005600060015481526020019081526020016000208281548110610d0e57fe5b9060005260206000200160009054906101000a900473ffffffffffffffffffffffffffffffffffffffff1673ffffffffffffffffffffffffffffffffffffffff161415610e90576005600060015481526020019081526020016000206001600560006001548152602001908152602001600020805490500381548110610d9057fe5b9060005260206000200160009054906101000a900473ffffffffffffffffffffffffffffffffffffffff166005600060015481526020019081526020016000208281548110610ddb57fe5b9060005260206000200160006101000a81548173ffffffffffffffffffffffffffffffffffffffff021916908373ffffffffffffffffffffffffffffffffffffffff1602179055506005600060015481526020019081526020016000206001600560006001548152602001908152602001600020805490500381548110610e5e57fe5b9060005260206000200160006101000a81549073ffffffffffffffffffffffffffffffffffffffff0219169055610e9d565b8080600101915050610cb7565b505b50565b600260009054906101000a900473ffffffffffffffffffffffffffffffffffffffff1673ffffffffffffffffffffffffffffffffffffffff163373ffffffffffffffffffffffffffffffffffffffff1614610f48576040517f08c379a00000000000000000000000000000000000000000000000000000000081526004018080602001828103825260338152602001806126026033913960400191505060405180910390fd5b80600760006101000a81548173ffffffffffffffffffffffffffffffffffffffff021916908373ffffffffffffffffffffffffffffffffffffffff16021790555050565b60015481565b60008060026001840181610fa257fe5b0490508291505b81811015610fd157809150600281828581610fc057fe5b040181610fc957fe5b049050610fa9565b50919050565b60606005600083815260200190815260200160002080548060200260200160405190810160405280929190818152602001828054801561106c57602002820191906000526020600020905b8160009054906101000a900473ffffffffffffffffffffffffffffffffffffffff1673ffffffffffffffffffffffffffffffffffffffff1681526020019060010190808311611022575b50505050509050919050565b60046020528060005260406000206000915054906101000a900460ff1681565b600260009054906101000a900473ffffffffffffffffffffffffffffffffffffffff1681565b600360009054906101000a900473ffffffffffffffffffffffffffffffffffffffff1673ffffffffffffffffffffffffffffffffffffffff163373ffffffffffffffffffffffffffffffffffffffff1614611164576040517f08c379a000000000000000000000000000000000000000000000000000000000815260040180806020018281038252602a8152602001806125d8602a913960400191505060405180910390fd5b600560006001548152602001908152602001600020600560006001805401815260200190815260200160002090805461119e92919061250e565b5060008090505b60056000600180540181526020019081526020016000208054905081101561139357600660006001548152602001908152602001600020600060056000600154815260200190815260200160002083815481106111fe57fe5b9060005260206000200160009054906101000a900473ffffffffffffffffffffffffffffffffffffffff1673ffffffffffffffffffffffffffffffffffffffff1673ffffffffffffffffffffffffffffffffffffffff16815260200190815260200160002060066000600180540181526020019081526020016000206000600560006001548152602001908152602001600020848154811061129c57fe5b9060005260206000200160009054906101000a900473ffffffffffffffffffffffffffffffffffffffff1673ffffffffffffffffffffffffffffffffffffffff1673ffffffffffffffffffffffffffffffffffffffff168152602001908152602001600020600082018160000160008201548160000155600182015481600101555050600282015481600201556003820181600301600082015481600001556001820154816001015560028201548160020155505060068201548160060155600782015481600701556008820154816008015560098201548160090155600a82015481600a015590505080806001019150506111a5565b50600160008154809291906001019190505550565b606080606080606060006005600088815260200190815260200160002080549050905060606005600089815260200190815260200160002080548060200260200160405190810160405280929190818152602001828054801561146057602002820191906000526020600020905b8160009054906101000a900473ffffffffffffffffffffffffffffffffffffffff1673ffffffffffffffffffffffffffffffffffffffff1681526020019060010190808311611416575b50505050509050816040519080825280602002602001820160405280156114965781602001602082028036833780820191505090505b509650816040519080825280602002602001820160405280156114c85781602001602082028036833780820191505090505b509550816040519080825280602002602001820160405280156114fa5781602001602082028036833780820191505090505b5094508160405190808252806020026020018201604052801561152c5781602001602082028036833780820191505090505b5093508160405190808252806020026020018201604052801561155e5781602001602082028036833780820191505090505b50925060008090505b828110156117f757600660008a8152602001908152602001600020600083838151811061159057fe5b602002602001015173ffffffffffffffffffffffffffffffffffffffff1673ffffffffffffffffffffffffffffffffffffffff168152602001908152602001600020600601548882815181106115e257fe5b602002602001018181525050600660008a8152602001908152602001600020600083838151811061160f57fe5b602002602001015173ffffffffffffffffffffffffffffffffffffffff1673ffffffffffffffffffffffffffffffffffffffff1681526020019081526020016000206007015487828151811061166157fe5b602002602001018181525050600660008a8152602001908152602001600020600083838151811061168e57fe5b602002602001015173ffffffffffffffffffffffffffffffffffffffff1673ffffffffffffffffffffffffffffffffffffffff168152602001908152602001600020600801548682815181106116e057fe5b602002602001018181525050600660008a8152602001908152602001600020600083838151811061170d57fe5b602002602001015173ffffffffffffffffffffffffffffffffffffffff1673ffffffffffffffffffffffffffffffffffffffff1681526020019081526020016000206009015485828151811061175f57fe5b602002602001018181525050600660008a8152602001908152602001600020600083838151811061178c57fe5b602002602001015173ffffffffffffffffffffffffffffffffffffffff1673ffffffffffffffffffffffffffffffffffffffff168152602001908152602001600020600a01548482815181106117de57fe5b6020026020010181815250508080600101915050611567565b50505091939590929450565b6060806060806060806000600560008981526020019081526020016000208054905090506060600560008a81526020019081526020016000208054806020026020016040519081016040528092919081815260200182805480156118bc57602002820191906000526020600020905b8160009054906101000a900473ffffffffffffffffffffffffffffffffffffffff1673ffffffffffffffffffffffffffffffffffffffff1681526020019060010190808311611872575b50505050509050816040519080825280602002602001820160405280156118f25781602001602082028036833780820191505090505b509750816040519080825280602002602001820160405280156119245781602001602082028036833780820191505090505b509650816040519080825280602002602001820160405280156119565781602001602082028036833780820191505090505b509550816040519080825280602002602001820160405280156119885781602001602082028036833780820191505090505b509450816040519080825280602002602001820160405280156119ba5781602001602082028036833780820191505090505b509350816040519080825280602002602001820160405280156119ec5781602001602082028036833780820191505090505b50925060008090505b82811015611d1357600660008b81526020019081526020016000206000838381518110611a1e57fe5b602002602001015173ffffffffffffffffffffffffffffffffffffffff1673ffffffffffffffffffffffffffffffffffffffff16815260200190815260200160002060000160000154898281518110611a7357fe5b602002602001018181525050600660008b81526020019081526020016000206000838381518110611aa057fe5b602002602001015173ffffffffffffffffffffffffffffffffffffffff1673ffffffffffffffffffffffffffffffffffffffff16815260200190815260200160002060000160010154888281518110611af557fe5b602002602001018181525050600660008b81526020019081526020016000206000838381518110611b2257fe5b602002602001015173ffffffffffffffffffffffffffffffffffffffff1673ffffffffffffffffffffffffffffffffffffffff16815260200190815260200160002060020154878281518110611b7457fe5b602002602001018181525050600660008b81526020019081526020016000206000838381518110611ba157fe5b602002602001015173ffffffffffffffffffffffffffffffffffffffff1673ffffffffffffffffffffffffffffffffffffffff16815260200190815260200160002060030160000154868281518110611bf657fe5b602002602001018181525050600660008b81526020019081526020016000206000838381518110611c2357fe5b602002602001015173ffffffffffffffffffffffffffffffffffffffff1673ffffffffffffffffffffffffffffffffffffffff16815260200190815260200160002060030160010154858281518110611c7857fe5b602002602001018181525050600660008b81526020019081526020016000206000838381518110611ca557fe5b602002602001015173ffffffffffffffffffffffffffffffffffffffff1673ffffffffffffffffffffffffffffffffffffffff16815260200190815260200160002060030160020154848281518110611cfa57fe5b60200260200101818152505080806001019150506119f5565b50505091939550919395565b60005481565b600060056000838152602001908152602001600020805490509050919050565b60011515600460003373ffffffffffffffffffffffffffffffffffffffff1673ffffffffffffffffffffffffffffffffffffffff16815260200190815260200160002060009054906101000a900460ff16151514611e0b576040517f08c379a00000000000000000000000000000000000000000000000000000000081526004018080602001828103825260188152602001807f5468652076656869636c65206973206e6f74206b6e6f776e000000000000000081525060200191505060405180910390fd5b60405180610100016040528060405180604001604052808e81526020018d81525081526020018a815260200160405180606001604052808b81526020018a81526020018981525081526020018681526020018581526020018481526020018381526020018281525060066000600154815260200190815260200160002060003373ffffffffffffffffffffffffffffffffffffffff1673ffffffffffffffffffffffffffffffffffffffff16815260200190815260200160002060008201518160000160008201518160000155602082015181600101555050602082015181600201556040820151816003016000820151816000015560208201518160010155604082015181600201555050606082015181600601556080820151816007015560a0820151816008015560c0820151816009015560e082015181600a01559050505050505050505050505050565b600260009054906101000a900473ffffffffffffffffffffffffffffffffffffffff1673ffffffffffffffffffffffffffffffffffffffff163373ffffffffffffffffffffffffffffffffffffffff1614611fff576040517f08c379a00000000000000000000000000000000000000000000000000000000081526004018080602001828103825260338152602001806126026033913960400191505060405180910390fd5b60011515600460008373ffffffffffffffffffffffffffffffffffffffff1673ffffffffffffffffffffffffffffffffffffffff16815260200190815260200160002060009054906101000a900460ff16151514612126576001600460008373ffffffffffffffffffffffffffffffffffffffff1673ffffffffffffffffffffffffffffffffffffffff16815260200190815260200160002060006101000a81548160ff021916908315150217905550600560006001548152602001908152602001600020819080600181540180825580915050600190039060005260206000200160009091909190916101000a81548173ffffffffffffffffffffffffffffffffffffffff021916908373ffffffffffffffffffffffffffffffffffffffff1602179055505b50565b60011515600460003373ffffffffffffffffffffffffffffffffffffffff1673ffffffffffffffffffffffffffffffffffffffff16815260200190815260200160002060009054906101000a900460ff161515146121ef576040517f08c379a00000000000000000000000000000000000000000000000000000000081526004018080602001828103825260188152602001807f5468652076656869636c65206973206e6f74206b6e6f776e000000000000000081525060200191505060405180910390fd5b60006122b6600260066000600154815260200190815260200160002060003373ffffffffffffffffffffffffffffffffffffffff1673ffffffffffffffffffffffffffffffffffffffff1681526020019081526020016000206000016001015486030a600260066000600154815260200190815260200160002060003373ffffffffffffffffffffffffffffffffffffffff1673ffffffffffffffffffffffffffffffffffffffff1681526020019081526020016000206000016000015488030a01610f92565b905060003373ffffffffffffffffffffffffffffffffffffffff16600054830260405180600001905060006040518083038185875af1925050503d806000811461231c576040519150601f19603f3d011682016040523d82523d6000602084013e612321565b606091505b5050905080612398576040517f08c379a00000000000000000000000000000000000000000000000000000000081526004018080602001828103825260108152602001807f5472616e73666572206661696c65642e0000000000000000000000000000000081525060200191505060405180910390fd5b8560066000600154815260200190815260200160002060003373ffffffffffffffffffffffffffffffffffffffff1673ffffffffffffffffffffffffffffffffffffffff168152602001908152602001600020600001600001819055508460066000600154815260200190815260200160002060003373ffffffffffffffffffffffffffffffffffffffff1673ffffffffffffffffffffffffffffffffffffffff168152602001908152602001600020600001600101819055508360066000600154815260200190815260200160002060003373ffffffffffffffffffffffffffffffffffffffff1673ffffffffffffffffffffffffffffffffffffffff168152602001908152602001600020600601819055508260066000600154815260200190815260200160002060003373ffffffffffffffffffffffffffffffffffffffff1673ffffffffffffffffffffffffffffffffffffffff168152602001908152602001600020600a0181905550505050505050565b82805482825590600052602060002090810192821561254f5760005260206000209182015b8281111561254e578254825591600101919060010190612533565b5b50905061255c9190612560565b5090565b6125a091905b8082111561259c57600081816101000a81549073ffffffffffffffffffffffffffffffffffffffff021916905550600101612566565b5090565b9056fe4f6e6c792074686520437573746f6469616e20536d61727420436f6e74726163742063616e2072657472696576652066756e64734f6e6c792074686520637573746f6469616e2063616e20726561636820746869732066756e6374696f6e546869732066756e6374696f6e206973207265737472696374656420746f2074686520636f6e74726163742773206f776e6572a2646970667358221220d7a8d99dd95ac2bc917d4f07ebb225ed7f06c007e0133a847b353566014c744f64736f6c63430006030033",
  "source": "// SPDX-License-Identifier: MIT\r\npragma solidity >=0.4.22 <0.9.0;\r\n\r\nimport * as P from \"./PlanningLib.sol\";\r\n\r\ncontract CustodianInt {\r\n    function OpenedSeq() public view returns (uint256) {}\r\n}\r\n\r\ncontract VehicleOracle {\r\n\r\n    uint public feeDistanceRatio = 5;                      // To be tuned according to the distance scale (m, dm, cm...)\r\n    uint public sequence = 1;\r\n\r\n    address public owner = msg.sender;\r\n    address payable public custodian;\r\n\r\n    mapping(address => bool) public vehiclesKnown;\r\n    mapping(uint => address[]) vehiclesAddresses;\r\n\r\n    mapping(uint => mapping (address => P.Planning.Vehicle)) vehicles;\r\n\r\n    CustodianInt custOr;\r\n\r\n    constructor (address payable _conAdd) public {\r\n        custodian = _conAdd;\r\n        custOr = CustodianInt(_conAdd);\r\n    }\r\n\r\n    modifier restricted() {\r\n        require(msg.sender == owner,\r\n        \"This function is restricted to the contract's owner\");\r\n        _;\r\n    }\r\n    /*\r\n    function update() private {\r\n        uint _seq = custOr.OpenedSeq() + 1;\r\n        if(_seq != sequence) {\r\n            vehiclesAddresses[sequence+1] = vehiclesAddresses[sequence];\r\n            for(uint i=0; i<vehiclesAddresses[sequence+1].length; i++) {\r\n                vehicles[sequence+1][vehiclesAddresses[sequence][i]] = vehicles[sequence][vehiclesAddresses[sequence][i]];\r\n            }\r\n            sequence = _seq;\r\n        }\r\n    }*/\r\n\r\n    function update() public {\r\n        require(msg.sender == custodian,\"Only the custodian can reach this function\");\r\n        vehiclesAddresses[sequence+1] = vehiclesAddresses[sequence];\r\n        for(uint i=0; i<vehiclesAddresses[sequence+1].length; i++) {\r\n            vehicles[sequence+1][vehiclesAddresses[sequence][i]] = vehicles[sequence][vehiclesAddresses[sequence][i]];\r\n        }\r\n        sequence ++;\r\n    }\r\n\r\n    modifier isKnown() {\r\n        require(vehiclesKnown[msg.sender]==true,\"The vehicle is not known\");\r\n        _;\r\n    }\r\n\r\n    function sqrt(uint x) public pure returns (uint y) {\r\n        uint z = (x + 1) / 2;\r\n        y = x;\r\n        while (z < y) {\r\n            y = z;\r\n            z = (x / z + z) / 2;\r\n        }\r\n    }\r\n\r\n    function setContractAddress(address _conAdd) public restricted {\r\n        custOr = CustodianInt(_conAdd);\r\n    }\r\n\r\n    function addKnownVehicle(address _vehicle) public restricted {\r\n        //update();\r\n        if(vehiclesKnown[_vehicle] != true) {\r\n            vehiclesKnown[_vehicle] = true;\r\n            vehiclesAddresses[sequence].push(_vehicle);\r\n        }\r\n    }\r\n\r\n    function removeKnownVehicle(address _vehicle) public restricted {\r\n        //update();\r\n        if(vehiclesKnown[_vehicle] == true) {\r\n            vehiclesKnown[_vehicle] = false;\r\n            for(uint i=0; i<vehiclesAddresses[sequence].length; i++) {\r\n                if(vehiclesAddresses[sequence][i] == _vehicle) {\r\n                    vehiclesAddresses[sequence][i] = vehiclesAddresses[sequence][vehiclesAddresses[sequence].length - 1];\r\n                    delete(vehiclesAddresses[sequence][vehiclesAddresses[sequence].length - 1]);\r\n                    //vehiclesAddresses[sequence].length --;\r\n                    break;\r\n                }\r\n            }\r\n        }\r\n    }\r\n\r\n\r\n    function setVehicleProperties(int _positionX, int _positionY,\r\n                                  uint _maxPayload,\r\n                                  uint _maxVolumeX, uint _maxVolumeY, uint _maxVolumeZ,\r\n                                  uint _distanceLeft,\r\n                                  uint _speed,\r\n                                  uint _setUpTime,\r\n                                  uint _dropOffTime,\r\n                                  uint _timeForTask) public isKnown {\r\n\r\n        //update();\r\n\r\n        vehicles[sequence][msg.sender] = P.Planning.Vehicle(P.Planning.Position(_positionX,_positionY),\r\n                                                                      _maxPayload,\r\n                                                                      P.Planning.Volume(_maxVolumeX,_maxVolumeY,_maxVolumeZ),\r\n                                                                      _distanceLeft,\r\n                                                                      _speed,\r\n                                                                      _setUpTime,\r\n                                                                      _dropOffTime,\r\n                                                                      _timeForTask);\r\n    }\r\n\r\n    function updateVehicleProperties(int _positionX, int _positionY, uint _distanceLeft, uint _timeForTask) public isKnown {\r\n\r\n        //update();\r\n    \r\n    \t// To be added in further development\r\n    \t// Check if the vehicle has actually completed the task with a QR proof\r\n    \t\r\n    \tuint distance = sqrt((uint(_positionX - vehicles[sequence][msg.sender].position.x))**2 +\r\n                             (uint(_positionY - vehicles[sequence][msg.sender].position.y))**2);\r\n                             \r\n        //msg.sender.transfer(distance * feeDistanceRatio);\r\n        (bool success, ) = msg.sender.call.value(distance * feeDistanceRatio)(\"\");\r\n        require(success, \"Transfer failed.\");\r\n\r\n        vehicles[sequence][msg.sender].position.x    = _positionX;\r\n        vehicles[sequence][msg.sender].position.y    = _positionY;\r\n        vehicles[sequence][msg.sender].distance_left = _distanceLeft;\r\n        vehicles[sequence][msg.sender].time_for_task = _timeForTask;\r\n\r\n    }\r\n\r\n    function getVehicles_1(uint _seq) public view returns(int[] memory _positionX,\r\n                                                          int[] memory _positionY,\r\n                                                          uint[] memory _maxPayload,\r\n                                                          uint[] memory _volumeX,\r\n                                                          uint[] memory _volumeY,\r\n                                                          uint[] memory _volumeZ) {\r\n\r\n        uint _len = vehiclesAddresses[_seq].length;\r\n        address[] memory _addresses = vehiclesAddresses[_seq];\r\n\r\n        _positionX      = new  int[](_len);\r\n        _positionY      = new  int[](_len);\r\n        _maxPayload     = new uint[](_len);\r\n        _volumeX        = new uint[](_len);\r\n        _volumeY        = new uint[](_len);\r\n        _volumeZ        = new uint[](_len);\r\n        \r\n        for(uint i=0; i < _len; i++) {\r\n            _positionX[i]    = vehicles[_seq][_addresses[i]].position.x;\r\n            _positionY[i]    = vehicles[_seq][_addresses[i]].position.y;\r\n            _maxPayload[i]   = vehicles[_seq][_addresses[i]].max_payload;\r\n            _volumeX[i]      = vehicles[_seq][_addresses[i]].max_volume.len;\r\n            _volumeY[i]      = vehicles[_seq][_addresses[i]].max_volume.height;\r\n            _volumeZ[i]      = vehicles[_seq][_addresses[i]].max_volume.depth;\r\n        }\r\n\r\n    }\r\n\r\n    function getVehicles_2(uint _seq) public view returns(uint[] memory _distanceLeft,\r\n                                                          uint[] memory _speed,\r\n                                                          uint[] memory _setUpTime,\r\n                                                          uint[] memory _dropOffTime,\r\n                                                          uint[] memory _timeForTask) {\r\n\r\n        uint _len = vehiclesAddresses[_seq].length;\r\n        address[] memory _addresses = vehiclesAddresses[_seq];\r\n\r\n        _distanceLeft   = new uint[](_len);\r\n        _speed          = new uint[](_len);\r\n        _setUpTime      = new uint[](_len);\r\n        _dropOffTime    = new uint[](_len);\r\n        _timeForTask    = new uint[](_len);\r\n        \r\n        for(uint i=0; i < _len; i++) {\r\n            _distanceLeft[i] = vehicles[_seq][_addresses[i]].distance_left;\r\n            _speed[i]        = vehicles[_seq][_addresses[i]].speed;\r\n            _setUpTime[i]    = vehicles[_seq][_addresses[i]].set_up_time;\r\n            _dropOffTime[i]  = vehicles[_seq][_addresses[i]].drop_off_time;\r\n            _timeForTask[i]  = vehicles[_seq][_addresses[i]].time_for_task;\r\n        }\r\n\r\n    }\r\n\r\n    function getVehiclesAddresses(uint _seq) public view returns(address[] memory) {\r\n        return vehiclesAddresses[_seq];\r\n    }\r\n\r\n    function getVehiclesNumber(uint _seq) public view returns(uint) {\r\n        return vehiclesAddresses[_seq].length;\r\n    }\r\n\r\n    function returnFunds(uint _funds) public {\r\n        require(msg.sender == custodian, \"Only the Custodian Smart Contract can retrieve funds\");\r\n        (bool success, ) = custodian.call.value(_funds)(\"\");\r\n        require(success, \"Transfer failed.\");\r\n    }\r\n\r\n    receive() external payable {}\r\n    fallback() external payable {}\r\n}",
  "sourcePath": "/home/bernardo/Research Project/PlanningCustodian_3/contracts/VehicleOracle.sol",
  "compiler": {
    "name": "solc",
    "version": "0.6.3+commit.8dda9521.Emscripten.clang"
  },
  "schemaVersion": "3.3.3",
  "updatedAt": "2021-03-10T18:54:44.016Z",
  "networkType": "ethereum",
  "devdoc": {
    "methods": {}
  },
  "userdoc": {
    "methods": {}
  }
}