{
  "contractName": "VehicleInt",
  "abi": [
    {
      "inputs": [
        {
          "internalType": "uint256",
          "name": "_funds",
          "type": "uint256"
        }
      ],
      "name": "returnFunds",
      "outputs": [],
      "stateMutability": "nonpayable",
      "type": "function"
    },
    {
      "inputs": [
        {
          "internalType": "uint256",
          "name": "_seq",
          "type": "uint256"
        }
      ],
      "name": "getVehiclesNumber",
      "outputs": [
        {
          "internalType": "uint256",
          "name": "",
          "type": "uint256"
        }
      ],
      "stateMutability": "view",
      "type": "function"
    },
    {
      "inputs": [],
      "name": "update",
      "outputs": [],
      "stateMutability": "nonpayable",
      "type": "function"
    }
  ],
  "bytecode": "0x608060405234801561001057600080fd5b5060f58061001f6000396000f3fe6080604052348015600f57600080fd5b5060043610603c5760003560e01c806345755dd6146041578063a2e6204514606c578063c99fc7ff146074575b600080fd5b606a60048036036020811015605557600080fd5b810190808035906020019092919050505060b3565b005b607260b6565b005b609d60048036036020811015608857600080fd5b810190808035906020019092919050505060b8565b6040518082815260200191505060405180910390f35b50565b565b600091905056fea264697066735822122020f6e48a11cd4c1765f869f88c65dfe74d983a18b2c356247539eb7d01027c7164736f6c63430006030033",
  "source": "// SPDX-License-Identifier: MIT\r\npragma solidity >=0.4.22 <0.9.0;\r\n\r\n//import * as P from \"./PlanningLib.sol\";\r\n\r\ncontract VehicleInt {\r\n    function returnFunds(uint _funds) public {}\r\n    function getVehiclesNumber(uint _seq) public view returns(uint) {}\r\n    function update() public {}\r\n}\r\n\r\ncontract VotersOracle {\r\n\r\n    uint256 public newly_opened_seq = 0;    \r\n    uint256 public last_finalized_seq;\r\n\r\n\taddress public owner = msg.sender;\r\n    address payable public vehicle;\r\n\t\r\n\taddress payable[] internal voters;\t\t\t\t\t\t// Keeps track of voters\r\n\r\n\tuint256 public numOfTotalVoters = 0;\r\n\tuint256 public initial_Deposit = 10**18;                 // 1 Ether\r\n\r\n\tmapping (address => bool) public knownVoters;         \t// Voter is known/or not\r\n    mapping (address => bool) public allowedVoters;\t\t  \t// Voter has paid the entry fee\r\n    mapping (address => uint32) public voterSeed;\t\t\t// Seed to be used in the solution computation\r\n\r\n    VehicleInt vehCon;\r\n\r\n    event newVoterSeed(address voter, uint32 seed);\r\n\r\n\tmodifier restricted() {\r\n        require(msg.sender == owner,\r\n        \"This function is restricted to the contract's owner\");\r\n        _;\r\n    }\r\n\r\n\tmodifier onlyVoters() {\r\n        require(allowedVoters[msg.sender],\"This function is restricted to accredited voters\");\r\n        _;\r\n    }\r\n\r\n    function setNewOwner(address _newOwner) public restricted {\r\n        owner = _newOwner;\r\n    }\r\n    \r\n    function removeIndex(uint index) internal {\r\n    \tvoters[index] = voters[voters.length-1];\r\n  \t\tdelete voters[voters.length-1];\r\n  \t\t//voters.length--;\r\n    }\r\n    \r\n    function removeAddress(address _add) internal {\r\n    \tfor(uint i=0; i<voters.length; i++) {\r\n    \t\tif(voters[i] == _add) {\r\n    \t\t\tremoveIndex(i);\r\n    \t\t\treturn;\r\n    \t\t}\r\n    \t}\r\n    }\r\n        \r\n    function setInitialDeposit(uint value) public restricted {\r\n    \tinitial_Deposit = value;\r\n    \treturn;\r\n    }\r\n\r\n    function setVehCon(address payable _vehAdd) public restricted {\r\n        vehicle = _vehAdd;\r\n        vehCon = VehicleInt(_vehAdd);\r\n    }\r\n\r\n    function addVoter(address _newVoter) public restricted {\r\n    \tknownVoters[_newVoter] = true;\r\n    }\r\n    \r\n    function enableVoter() public payable {\r\n    \trequire(allowedVoters[msg.sender] != true, \"This voter is already enabled\");\r\n    \trequire(knownVoters[msg.sender],\"This function is restricted to accredited voters\");\r\n    \trequire(msg.value >= initial_Deposit, \"Not enough funds were sent to be accepted\");\r\n        allowedVoters[msg.sender] = true;\r\n        numOfTotalVoters ++;\r\n        voters.push(msg.sender);\r\n        voterSeed[msg.sender] = uint32(uint(keccak256(abi.encode(msg.sender))));\t// Pseudo-random seed generated for the new voter\r\n        (bool success, ) = vehicle.call.value(msg.value)(\"\");\r\n        require(success, \"Transfer failed.\");\r\n        emit newVoterSeed(msg.sender, voterSeed[msg.sender]);\r\n    }\r\n    \r\n    function leaveVoters() public {\r\n        if(allowedVoters[msg.sender] == true) {\r\n            allowedVoters[msg.sender] = false;\r\n            knownVoters[msg.sender] = false;\r\n            vehCon.returnFunds(initial_Deposit);\r\n            //msg.sender.transfer(initial_Deposit);\r\n            (bool success, ) = msg.sender.call.value(initial_Deposit)(\"\");\r\n            require(success, \"Transfer failed.\");\r\n            removeAddress(msg.sender);\r\n            numOfTotalVoters --;\r\n            return;\r\n        }\r\n        if(knownVoters[msg.sender] == true) {\r\n            knownVoters[msg.sender] = false;\r\n            return;\r\n        }\r\n    }\r\n\r\n    function removeFrauder(address _fraudVoter) internal {\r\n    \trequire(allowedVoters[_fraudVoter],\"The fraudulent voter is not among the enabled ones\");\r\n    \tallowedVoters[_fraudVoter] = false;\r\n    \tuint fee = initial_Deposit / (numOfTotalVoters - 1);\r\n    \tuint fraudIndex;\r\n    \tfor(uint i=0; i<numOfTotalVoters; i++) {\r\n    \t\tif(voters[i] == _fraudVoter) {\r\n                fraudIndex = i;\r\n                continue;\r\n            }\r\n            //voters[i].transfer(fee);\r\n            (bool success, ) = voters[i].call.value(fee)(\"\");\r\n            require(success, \"Transfer failed.\");\r\n    \t}\r\n    \tnumOfTotalVoters --;\r\n    \tremoveIndex(fraudIndex);\r\n    }\r\n    \r\n    function punishFrauder(address _fraudVoter, address _disputer) internal {\r\n    \trequire(allowedVoters[_fraudVoter],\"The fraudulent voter is not among the enabled ones\");\r\n    \tallowedVoters[_fraudVoter] = false;\r\n    \tuint fee = initial_Deposit / numOfTotalVoters;\r\n    \tuint fraudIndex;\r\n    \tfor(uint i=0; i<numOfTotalVoters; i++) {\r\n    \t\tif(voters[i] == _fraudVoter) fraudIndex = i;\r\n    \t\tif(voters[i] == _disputer) {\r\n    \t\t\t//voters[i].transfer(fee * 2);\r\n                (bool success, ) = voters[i].call.value(fee * 2)(\"\");\r\n                require(success, \"Transfer failed.\");\r\n    \t\t}\r\n    \t\telse {\r\n                //voters[i].transfer(fee);\r\n                (bool success, ) = voters[i].call.value(fee)(\"\");\r\n                require(success, \"Transfer failed.\");\r\n            }\r\n    \t}\r\n    \tnumOfTotalVoters --;\r\n    \tremoveIndex(fraudIndex);\r\n    }\r\n\r\n    function getInitial_Deposit() public view returns(uint) {\r\n        return initial_Deposit;\r\n    }\r\n\r\n    receive() external payable {}\r\n    fallback() external payable {}\r\n}\r\n",
  "sourcePath": "/home/bernardo/Research Project/PlanningCustodian_3/contracts/VotersOracle.sol",
  "compiler": {
    "name": "solc",
    "version": "0.6.3+commit.8dda9521.Emscripten.clang"
  },
  "schemaVersion": "3.3.3",
  "updatedAt": "2021-03-10T18:59:05.317Z",
  "devdoc": {
    "methods": {}
  },
  "userdoc": {
    "methods": {}
  }
}